{"abi":[{"type":"constructor","inputs":[{"name":"name_","type":"string","internalType":"string"},{"name":"symbol_","type":"string","internalType":"string"},{"name":"market_","type":"address","internalType":"address"}],"stateMutability":"nonpayable"},{"type":"function","name":"allowance","inputs":[{"name":"owner","type":"address","internalType":"address"},{"name":"spender","type":"address","internalType":"address"}],"outputs":[{"name":"","type":"uint256","internalType":"uint256"}],"stateMutability":"view"},{"type":"function","name":"approve","inputs":[{"name":"spender","type":"address","internalType":"address"},{"name":"value","type":"uint256","internalType":"uint256"}],"outputs":[{"name":"","type":"bool","internalType":"bool"}],"stateMutability":"nonpayable"},{"type":"function","name":"balanceOf","inputs":[{"name":"account","type":"address","internalType":"address"}],"outputs":[{"name":"","type":"uint256","internalType":"uint256"}],"stateMutability":"view"},{"type":"function","name":"burn","inputs":[{"name":"from","type":"address","internalType":"address"},{"name":"amount","type":"uint256","internalType":"uint256"}],"outputs":[],"stateMutability":"nonpayable"},{"type":"function","name":"decimals","inputs":[],"outputs":[{"name":"","type":"uint8","internalType":"uint8"}],"stateMutability":"pure"},{"type":"function","name":"market","inputs":[],"outputs":[{"name":"","type":"address","internalType":"address"}],"stateMutability":"view"},{"type":"function","name":"mint","inputs":[{"name":"to","type":"address","internalType":"address"},{"name":"amount","type":"uint256","internalType":"uint256"}],"outputs":[],"stateMutability":"nonpayable"},{"type":"function","name":"name","inputs":[],"outputs":[{"name":"","type":"string","internalType":"string"}],"stateMutability":"view"},{"type":"function","name":"symbol","inputs":[],"outputs":[{"name":"","type":"string","internalType":"string"}],"stateMutability":"view"},{"type":"function","name":"totalSupply","inputs":[],"outputs":[{"name":"","type":"uint256","internalType":"uint256"}],"stateMutability":"view"},{"type":"function","name":"transfer","inputs":[{"name":"to","type":"address","internalType":"address"},{"name":"value","type":"uint256","internalType":"uint256"}],"outputs":[{"name":"","type":"bool","internalType":"bool"}],"stateMutability":"nonpayable"},{"type":"function","name":"transferFrom","inputs":[{"name":"from","type":"address","internalType":"address"},{"name":"to","type":"address","internalType":"address"},{"name":"value","type":"uint256","internalType":"uint256"}],"outputs":[{"name":"","type":"bool","internalType":"bool"}],"stateMutability":"nonpayable"},{"type":"event","name":"Approval","inputs":[{"name":"owner","type":"address","indexed":true,"internalType":"address"},{"name":"spender","type":"address","indexed":true,"internalType":"address"},{"name":"value","type":"uint256","indexed":false,"internalType":"uint256"}],"anonymous":false},{"type":"event","name":"Transfer","inputs":[{"name":"from","type":"address","indexed":true,"internalType":"address"},{"name":"to","type":"address","indexed":true,"internalType":"address"},{"name":"value","type":"uint256","indexed":false,"internalType":"uint256"}],"anonymous":false},{"type":"error","name":"ERC20InsufficientAllowance","inputs":[{"name":"spender","type":"address","internalType":"address"},{"name":"allowance","type":"uint256","internalType":"uint256"},{"name":"needed","type":"uint256","internalType":"uint256"}]},{"type":"error","name":"ERC20InsufficientBalance","inputs":[{"name":"sender","type":"address","internalType":"address"},{"name":"balance","type":"uint256","internalType":"uint256"},{"name":"needed","type":"uint256","internalType":"uint256"}]},{"type":"error","name":"ERC20InvalidApprover","inputs":[{"name":"approver","type":"address","internalType":"address"}]},{"type":"error","name":"ERC20InvalidReceiver","inputs":[{"name":"receiver","type":"address","internalType":"address"}]},{"type":"error","name":"ERC20InvalidSender","inputs":[{"name":"sender","type":"address","internalType":"address"}]},{"type":"error","name":"ERC20InvalidSpender","inputs":[{"name":"spender","type":"address","internalType":"address"}]},{"type":"error","name":"OnlyMarket","inputs":[]}],"bytecode":{"object":"0x60a060405234620003375762000ca0803803806200001d816200033b565b9283398101606082820312620003375781516001600160401b03908181116200033757826200004e91850162000361565b906020928385015182811162000337576040916200006e91870162000361565b940151936001600160a01b03851685036200033757825182811162000242576003918254916001958684811c941680156200032c575b8885101462000318578190601f94858111620002c5575b50889085831160011462000262575f9262000256575b50505f1982861b1c191690861b1783555b8051938411620002425760049586548681811c9116801562000237575b828210146200022457838111620001dc575b50809285116001146200017257509383949184925f9562000166575b50501b925f19911b1c19161790555b6080526040516108ce9081620003d2823960805181818161014a0152818161035c01526103ea0152f35b015193505f806200012d565b92919084601f198116885f52855f20955f905b89838310620001c15750505010620001a7575b50505050811b0190556200013c565b01519060f8845f19921b161c191690555f80808062000198565b85870151895590970196948501948893509081019062000185565b875f52815f208480880160051c8201928489106200021a575b0160051c019087905b8281106200020e57505062000111565b5f8155018790620001fe565b92508192620001f5565b602288634e487b7160e01b5f525260245ffd5b90607f1690620000ff565b634e487b7160e01b5f52604160045260245ffd5b015190505f80620000d1565b90889350601f19831691875f528a5f20925f5b8c828210620002ae575050841162000296575b505050811b018355620000e2565b01515f1983881b60f8161c191690555f808062000288565b8385015186558c9790950194938401930162000275565b909150855f52885f208580850160051c8201928b86106200030e575b918a91869594930160051c01915b828110620002ff575050620000bb565b5f81558594508a9101620002ef565b92508192620002e1565b634e487b7160e01b5f52602260045260245ffd5b93607f1693620000a4565b5f80fd5b6040519190601f01601f191682016001600160401b038111838210176200024257604052565b919080601f84011215620003375782516001600160401b038111620002425760209062000397601f8201601f191683016200033b565b9281845282828701011162000337575f5b818110620003bd5750825f9394955001015290565b8581018301518482018401528201620003a856fe6080604090808252600480361015610015575f80fd5b5f3560e01c91826306fdde031461067357508163095ea7b3146105cb57816318160ddd146105ad57816323b872dd146104bb578163313ce567146104a057816340c10f19146103c157816370a082311461038b57816380f556051461034857816395d89b41146102295781639dc29fac1461012057508063a9059cbb146100f05763dd62ed3e146100a4575f80fd5b346100ec57806003193601126100ec576020906100bf610792565b6100c76107a8565b9060018060a01b038091165f5260018452825f2091165f528252805f20549051908152f35b5f80fd5b50346100ec57806003193601126100ec5760209061011961010f610792565b60243590336107be565b5160018152f35b82346100ec57806003193601126100ec57610139610792565b602435929091906001600160a01b037f00000000000000000000000000000000000000000000000000000000000000008116330361021a57831692831561020457835f525f602052825f2054918583106101d0575f857fddf252ad1be2c89b69c2b068fc378daa952ba7f163c4a11628f55a4df523b3ef6020898881898688528785520381872055816002540360025551908152a3005b835163391434e360e21b81526001600160a01b03909216908201908152602081018390526040810186905281906060010390fd5b505f6024925191634b637e8f60e11b8352820152fd5b509051639e0125a960e01b8152fd5b82346100ec575f3660031901126100ec578051905f835460018160011c906001831692831561033e575b602093848410811461032b5783885290811561030f57506001146102bb575b505050829003601f01601f191682019267ffffffffffffffff8411838510176102a857508291826102a492528261074b565b0390f35b604190634e487b7160e01b5f525260245ffd5b5f878152929350837f8a35acfbc15ff81a39ae7d344fd709f28e8600b4aa8c65c6b64bfe7fe36bd19b5b8385106102fb5750505050830101848080610272565b8054888601830152930192849082016102e5565b60ff1916878501525050151560051b8401019050848080610272565b602289634e487b7160e01b5f525260245ffd5b91607f1691610253565b82346100ec575f3660031901126100ec57517f00000000000000000000000000000000000000000000000000000000000000006001600160a01b03168152602090f35b82346100ec5760203660031901126100ec576020906001600160a01b036103b0610792565b165f525f8252805f20549051908152f35b82346100ec57806003193601126100ec576103da610792565b60243591906001600160a01b03907f000000000000000000000000000000000000000000000000000000000000000082163303610490571692831561047b576002549083820180921161046857505f927fddf252ad1be2c89b69c2b068fc378daa952ba7f163c4a11628f55a4df523b3ef9260209260025585855284835280852082815401905551908152a3005b601190634e487b7160e01b5f525260245ffd5b5f602492519163ec442f0560e01b8352820152fd5b8251639e0125a960e01b81528590fd5b82346100ec575f3660031901126100ec576020905160068152f35b9050346100ec5760603660031901126100ec576104d6610792565b6104de6107a8565b906044359260018060a01b038216805f526001602052855f20335f52602052855f2054915f198310610519575b6020876101198888886107be565b85831061058157811561056b57331561055557505f9081526001602090815286822033835281529086902091859003909155829061011961050b565b6024905f885191634a1406b160e11b8352820152fd5b6024905f88519163e602df0560e01b8352820152fd5b8651637dc7a0d960e11b8152339181019182526020820193909352604081018690528291506060010390fd5b82346100ec575f3660031901126100ec576020906002549051908152f35b82346100ec57806003193601126100ec576105e4610792565b60243590331561065d576001600160a01b03169081156106475760209350335f5260018452825f20825f52845280835f205582519081527f8c5be1e5ebec7d5bd14f71427d1e84f3dd0314c0f7b2291e5b200ac8c7c3b925843392a35160018152f35b8251634a1406b160e11b81525f81860152602490fd5b825163e602df0560e01b81525f81860152602490fd5b83346100ec575f3660031901126100ec575f60035460018160011c9060018316928315610741575b602093848410811461032b5783885290811561030f57506001146106eb57505050829003601f01601f191682019267ffffffffffffffff8411838510176102a857508291826102a492528261074b565b60035f908152929350837fc2575a0e9e593c00f959f8c92f12db2869c3395a3b0502d05e2516446f71f85b5b83851061072d5750505050830101848080610272565b805488860183015293019284908201610717565b91607f169161069b565b602080825282518183018190529093925f5b82811061077e57505060409293505f838284010152601f8019910116010190565b81810186015184820160400152850161075d565b600435906001600160a01b03821682036100ec57565b602435906001600160a01b03821682036100ec57565b916001600160a01b03808416928315610880571692831561086857825f525f60205260405f2054908282106108365750817fddf252ad1be2c89b69c2b068fc378daa952ba7f163c4a11628f55a4df523b3ef92602092855f525f84520360405f2055845f5260405f20818154019055604051908152a3565b60405163391434e360e21b81526001600160a01b03919091166004820152602481019190915260448101829052606490fd5b60405163ec442f0560e01b81525f6004820152602490fd5b604051634b637e8f60e11b81525f6004820152602490fdfea264697066735822122075d62fb79b05c538cf5f5ac89defb4a5d3071a4c8d4b71986ebe6a9f4ca2505664736f6c63430008180033","linkReferences":{}},"methodIdentifiers":{"allowance(address,address)":"dd62ed3e","approve(address,uint256)":"095ea7b3","balanceOf(address)":"70a08231","burn(address,uint256)":"9dc29fac","decimals()":"313ce567","market()":"80f55605","mint(address,uint256)":"40c10f19","name()":"06fdde03","symbol()":"95d89b41","totalSupply()":"18160ddd","transfer(address,uint256)":"a9059cbb","transferFrom(address,address,uint256)":"23b872dd"},"id":13}