{"abi":[{"type":"constructor","inputs":[{"name":"market_","type":"address","internalType":"address"}],"stateMutability":"nonpayable"},{"type":"function","name":"market","inputs":[],"outputs":[{"name":"","type":"address","internalType":"contract PDXMarket"}],"stateMutability":"view"},{"type":"function","name":"owner","inputs":[],"outputs":[{"name":"","type":"address","internalType":"address"}],"stateMutability":"view"},{"type":"function","name":"settleMarket","inputs":[{"name":"marketId","type":"uint256","internalType":"uint256"},{"name":"outcome","type":"bool","internalType":"bool"}],"outputs":[],"stateMutability":"nonpayable"},{"type":"error","name":"OnlyOwner","inputs":[]}],"bytecode":{"object":"0x60a03461008257601f61025838819003918201601f19168301916001600160401b038311848410176100865780849260209460405283398101031261008257516001600160a01b03811690819003610082576080525f80546001600160a01b031916331790556040516101bd908161009b8239608051818181607e015260e50152f35b5f80fd5b634e487b7160e01b5f52604160045260245ffdfe608060408181526004361015610013575f80fd5b5f915f3560e01c90816373b883f7146100ad5750806380f556051461006a57638da5cb5b14610040575f80fd5b34610066578160031936011261006657905490516001600160a01b039091168152602090f35b5080fd5b5034610066578160031936011261006657517f00000000000000000000000000000000000000000000000000000000000000006001600160a01b03168152602090f35b9190503461017457806003193601126101745760243591821515809303610174575f546001600160a01b0391908216330361017857507f00000000000000000000000000000000000000000000000000000000000000001691823b15610174575f92604484928451958693849263fe417a4760e01b8452600435600485015260248401525af1801561016a57610141578280f35b90915067ffffffffffffffff82116101565752005b634e487b7160e01b5f52604160045260245ffd5b50513d5f823e3d90fd5b5f80fd5b635fc483c560e01b8152600490fdfea26469706673582212206e07204f3c73639c579979190af7f6e666ea1b9edc67c67ae480c3bfcd68a5c564736f6c63430008180033","linkReferences":{}},"methodIdentifiers":{"market()":"80f55605","owner()":"8da5cb5b","settleMarket(uint256,bool)":"73b883f7"},"id":15}