{"abi":[{"type":"constructor","inputs":[{"name":"usdc_","type":"address","internalType":"address"},{"name":"oracle_","type":"address","internalType":"address"}],"stateMutability":"nonpayable"},{"type":"function","name":"FEE_DENOMINATOR","inputs":[],"outputs":[{"name":"","type":"uint256","internalType":"uint256"}],"stateMutability":"view"},{"type":"function","name":"FEE_NORMAL","inputs":[],"outputs":[{"name":"","type":"uint256","internalType":"uint256"}],"stateMutability":"view"},{"type":"function","name":"FEE_WITH_EVIDENCE","inputs":[],"outputs":[{"name":"","type":"uint256","internalType":"uint256"}],"stateMutability":"view"},{"type":"function","name":"LOCKDOWN_BUFFER","inputs":[],"outputs":[{"name":"","type":"uint256","internalType":"uint256"}],"stateMutability":"view"},{"type":"function","name":"MIN_LIQUIDITY","inputs":[],"outputs":[{"name":"","type":"uint256","internalType":"uint256"}],"stateMutability":"view"},{"type":"function","name":"buyNo","inputs":[{"name":"marketId","type":"uint256","internalType":"uint256"},{"name":"usdcAmount","type":"uint256","internalType":"uint256"}],"outputs":[],"stateMutability":"nonpayable"},{"type":"function","name":"buyYes","inputs":[{"name":"marketId","type":"uint256","internalType":"uint256"},{"name":"usdcAmount","type":"uint256","internalType":"uint256"}],"outputs":[],"stateMutability":"nonpayable"},{"type":"function","name":"createMarket","inputs":[{"name":"question","type":"string","internalType":"string"},{"name":"polymarketConditionId","type":"bytes32","internalType":"bytes32"},{"name":"deadline","type":"uint256","internalType":"uint256"},{"name":"initialLiquidity","type":"uint256","internalType":"uint256"}],"outputs":[{"name":"marketId","type":"uint256","internalType":"uint256"}],"stateMutability":"nonpayable"},{"type":"function","name":"getEvidence","inputs":[{"name":"marketId","type":"uint256","internalType":"uint256"},{"name":"index","type":"uint256","internalType":"uint256"}],"outputs":[{"name":"submitter","type":"address","internalType":"address"},{"name":"ipfsHash","type":"bytes32","internalType":"bytes32"},{"name":"summary","type":"string","internalType":"string"},{"name":"timestamp","type":"uint256","internalType":"uint256"}],"stateMutability":"view"},{"type":"function","name":"getEvidenceCount","inputs":[{"name":"marketId","type":"uint256","internalType":"uint256"}],"outputs":[{"name":"","type":"uint256","internalType":"uint256"}],"stateMutability":"view"},{"type":"function","name":"getMarketTokens","inputs":[{"name":"marketId","type":"uint256","internalType":"uint256"}],"outputs":[{"name":"yesToken","type":"address","internalType":"address"},{"name":"noToken","type":"address","internalType":"address"}],"stateMutability":"view"},{"type":"function","name":"getPriceNo","inputs":[{"name":"marketId","type":"uint256","internalType":"uint256"}],"outputs":[{"name":"","type":"uint256","internalType":"uint256"}],"stateMutability":"view"},{"type":"function","name":"getPriceYes","inputs":[{"name":"marketId","type":"uint256","internalType":"uint256"}],"outputs":[{"name":"","type":"uint256","internalType":"uint256"}],"stateMutability":"view"},{"type":"function","name":"hasEvidence","inputs":[{"name":"","type":"address","internalType":"address"},{"name":"","type":"uint256","internalType":"uint256"}],"outputs":[{"name":"","type":"bool","internalType":"bool"}],"stateMutability":"view"},{"type":"function","name":"marketEvidence","inputs":[{"name":"","type":"uint256","internalType":"uint256"},{"name":"","type":"uint256","internalType":"uint256"}],"outputs":[{"name":"submitter","type":"address","internalType":"address"},{"name":"ipfsHash","type":"bytes32","internalType":"bytes32"},{"name":"summary","type":"string","internalType":"string"},{"name":"timestamp","type":"uint256","internalType":"uint256"}],"stateMutability":"view"},{"type":"function","name":"markets","inputs":[{"name":"","type":"uint256","internalType":"uint256"}],"outputs":[{"name":"question","type":"string","internalType":"string"},{"name":"polymarketConditionId","type":"bytes32","internalType":"bytes32"},{"name":"reserveYes","type":"uint256","internalType":"uint256"},{"name":"reserveNo","type":"uint256","internalType":"uint256"},{"name":"k","type":"uint256","internalType":"uint256"},{"name":"deadline","type":"uint256","internalType":"uint256"},{"name":"lockTime","type":"uint256","internalType":"uint256"},{"name":"totalDeposited","type":"uint256","internalType":"uint256"},{"name":"feesAccrued","type":"uint256","internalType":"uint256"},{"name":"resolved","type":"bool","internalType":"bool"},{"name":"outcome","type":"bool","internalType":"bool"},{"name":"creator","type":"address","internalType":"address"},{"name":"yesToken","type":"address","internalType":"contract OutcomeToken"},{"name":"noToken","type":"address","internalType":"contract OutcomeToken"}],"stateMutability":"view"},{"type":"function","name":"nextMarketId","inputs":[],"outputs":[{"name":"","type":"uint256","internalType":"uint256"}],"stateMutability":"view"},{"type":"function","name":"oracle","inputs":[],"outputs":[{"name":"","type":"address","internalType":"address"}],"stateMutability":"view"},{"type":"function","name":"owner","inputs":[],"outputs":[{"name":"","type":"address","internalType":"address"}],"stateMutability":"view"},{"type":"function","name":"redeem","inputs":[{"name":"marketId","type":"uint256","internalType":"uint256"}],"outputs":[],"stateMutability":"nonpayable"},{"type":"function","name":"sell","inputs":[{"name":"marketId","type":"uint256","internalType":"uint256"},{"name":"isYes","type":"bool","internalType":"bool"},{"name":"tokenAmount","type":"uint256","internalType":"uint256"}],"outputs":[],"stateMutability":"nonpayable"},{"type":"function","name":"setOracle","inputs":[{"name":"newOracle","type":"address","internalType":"address"}],"outputs":[],"stateMutability":"nonpayable"},{"type":"function","name":"settle","inputs":[{"name":"marketId","type":"uint256","internalType":"uint256"},{"name":"outcome","type":"bool","internalType":"bool"}],"outputs":[],"stateMutability":"nonpayable"},{"type":"function","name":"submitEvidence","inputs":[{"name":"marketId","type":"uint256","internalType":"uint256"},{"name":"ipfsHash","type":"bytes32","internalType":"bytes32"},{"name":"summary","type":"string","internalType":"string"}],"outputs":[],"stateMutability":"nonpayable"},{"type":"function","name":"usdc","inputs":[],"outputs":[{"name":"","type":"address","internalType":"contract IERC20"}],"stateMutability":"view"},{"type":"event","name":"EvidenceSubmitted","inputs":[{"name":"marketId","type":"uint256","indexed":true,"internalType":"uint256"},{"name":"submitter","type":"address","indexed":true,"internalType":"address"},{"name":"ipfsHash","type":"bytes32","indexed":false,"internalType":"bytes32"},{"name":"summary","type":"string","indexed":false,"internalType":"string"}],"anonymous":false},{"type":"event","name":"MarketCreated","inputs":[{"name":"marketId","type":"uint256","indexed":true,"internalType":"uint256"},{"name":"question","type":"string","indexed":false,"internalType":"string"},{"name":"creator","type":"address","indexed":true,"internalType":"address"},{"name":"deadline","type":"uint256","indexed":false,"internalType":"uint256"}],"anonymous":false},{"type":"event","name":"MarketSettled","inputs":[{"name":"marketId","type":"uint256","indexed":true,"internalType":"uint256"},{"name":"outcome","type":"bool","indexed":false,"internalType":"bool"}],"anonymous":false},{"type":"event","name":"OracleUpdated","inputs":[{"name":"oldOracle","type":"address","indexed":true,"internalType":"address"},{"name":"newOracle","type":"address","indexed":true,"internalType":"address"}],"anonymous":false},{"type":"event","name":"Redeemed","inputs":[{"name":"marketId","type":"uint256","indexed":true,"internalType":"uint256"},{"name":"user","type":"address","indexed":true,"internalType":"address"},{"name":"amount","type":"uint256","indexed":false,"internalType":"uint256"}],"anonymous":false},{"type":"event","name":"Sold","inputs":[{"name":"marketId","type":"uint256","indexed":true,"internalType":"uint256"},{"name":"trader","type":"address","indexed":true,"internalType":"address"},{"name":"isYes","type":"bool","indexed":false,"internalType":"bool"},{"name":"tokensIn","type":"uint256","indexed":false,"internalType":"uint256"},{"name":"usdcOut","type":"uint256","indexed":false,"internalType":"uint256"}],"anonymous":false},{"type":"event","name":"Trade","inputs":[{"name":"marketId","type":"uint256","indexed":true,"internalType":"uint256"},{"name":"trader","type":"address","indexed":true,"internalType":"address"},{"name":"isYes","type":"bool","indexed":false,"internalType":"bool"},{"name":"usdcIn","type":"uint256","indexed":false,"internalType":"uint256"},{"name":"tokensOut","type":"uint256","indexed":false,"internalType":"uint256"},{"name":"fee","type":"uint256","indexed":false,"internalType":"uint256"}],"anonymous":false},{"type":"error","name":"DeadlineNotReached","inputs":[]},{"type":"error","name":"DeadlineTooSoon","inputs":[]},{"type":"error","name":"InsufficientAmount","inputs":[]},{"type":"error","name":"InsufficientLiquidity","inputs":[]},{"type":"error","name":"MarketAlreadyResolved","inputs":[]},{"type":"error","name":"MarketLocked","inputs":[]},{"type":"error","name":"MarketNotResolved","inputs":[]},{"type":"error","name":"NothingToRedeem","inputs":[]},{"type":"error","name":"OnlyOracle","inputs":[]},{"type":"error","name":"OnlyOwner","inputs":[]},{"type":"error","name":"ReentrancyGuardReentrantCall","inputs":[]},{"type":"error","name":"SafeERC20FailedOperation","inputs":[{"name":"token","type":"address","internalType":"address"}]},{"type":"error","name":"ZeroAmount","inputs":[]}],"bytecode":{"object":"0x60a034620000e957601f62002d0f38819003918201601f19168301916001600160401b03831184841017620000ed578084926040948552833981010312620000e9576200005a6020620000528362000101565b920162000101565b60017f9b779b17422d0df92223018b32b4d1fa46e071723d6817e2486d003becc55f008190556001600160a01b039283166080525f8054929093166001600160a01b0319928316179092558154339116179055604051612bf8908162000117823960805181818161070d015281816109e101528181610e3601528181610fdf015281816110ad01526112770152f35b5f80fd5b634e487b7160e01b5f52604160045260245ffd5b51906001600160a01b0382168203620000e95756fe608080604052600436101562000013575f80fd5b5f905f3560e01c90816321b77d6314620018eb575080632ec26b9d14620011f5578063399af502146200100e5780633e413bee1462000fc7578063406ef2ef1462000fa7578063423aee311462000f7b57806349c0cc141462000d175780637adbf9731462000c945780637d68f5571462000c765780637dc0d1d01462000c4d5780638da5cb5b1462000c22578063918268a81462000bd55780639aa8695f1462000b67578063a9f6b0581462000941578063b1283e771462000852578063be57d07a1462000834578063d46a77211462000811578063d73792a914620007f2578063db006a75146200060e578063de62967d14620005e3578063ea75dde414620002eb578063f0f3684e14620002a8578063f1b8a98c1462000246578063fc03181c14620002275763fe417a47146200014b575f80fd5b346200022457604036600319011262000224576004356200016b62001950565b82546001600160a01b031633036200021257818352600360205260408320600981019182549160ff83166200020057600501544210620001ee5761ffff1990911681151560081b61ff0016176001179091557f567004967c94ba65aa833c6d0374e264519bd15a847340c358d34c2e4a5e5d5d906020906040519015158152a280f35b604051633376277360e11b8152600490fd5b60405163aa43cb2d60e01b8152600490fd5b6040516380fee10560e01b8152600490fd5b80fd5b5034620002245780600319360112620002245760206040516107088152f35b503462000224576200026f9060406200025f3662001939565b9290815260046020522062001977565b5060018060a01b03815416620002a46001830154926200029760026003830154920162001a18565b6040519485948562001b10565b0390f35b503462000224576020366003190112620002245760408091600435815260036020522060018060a01b03600b81600a840154169201541682519182526020820152f35b503462000224576060366003190112620002245760243560043567ffffffffffffffff604435818111620005df576200032990369060040162001908565b93908386526020926003845260ff600960408920015416620002005733875260058452604087208588528452604087206001908160ff19825416179055600485526040882090604051926080840184811082821117620005cb57604052338452868401918683526200039d368b8862001bfa565b9260408601938452606086019442865280549068010000000000000000821015620005b75790620003d391848201815562001977565b969096620005a35760018060a01b039051166bffffffffffffffffffffffff60a01b875416178655518186015560028501925180519283116200058f576200041c8454620019a5565b601f811162000542575b5088908c601f8511600114620004b05793807f864a03c71b2e101da8180c7fc26f3e3cfe2e3584a8a7f4eae68a18dd6194011d9b9a9997946200049e999794829460039894620004a4575b50501b915f1990861b1c19161790555b519101556040805194859485528401523396604084019162001c35565b0390a380f35b015192505f8062000471565b9190601f9493941984168684528b8420935b8181106200052c5750926003959285927f864a03c71b2e101da8180c7fc26f3e3cfe2e3584a8a7f4eae68a18dd6194011d9d9c9b99966200049e9b99961062000514575b505050811b01905562000481565b01515f1983881b60f8161c191690555f808062000506565b82840151855593860193928c01928c01620004c2565b848d52898d20601f850160051c8101918b861062000584575b601f0160051c019083908e5b838210620005785750505062000426565b81550183908e62000567565b90915081906200055b565b634e487b7160e01b8c52604160045260248cfd5b634e487b7160e01b8d5260048d905260248dfd5b634e487b7160e01b8e52604160045260248efd5b634e487b7160e01b5f52604160045260245ffd5b8480fd5b503462000224576020366003190112620002245760206200060660043562001caf565b604051908152f35b5034620002245760208060031936011262000777576004356200063062001cfd565b8083526003825260408320600981015460ff811615620007e05760081c60ff1615620007cd57600a01546001600160a01b03165b6040516370a0823160e01b815233600482015292906001600160a01b03168184602481845afa938415620007c25785946200078d575b5083156200077b578085913b156200077757604051632770a7eb60e21b8152336004820152602481018690529082908290604490829084905af180156200076c5762000750575b50507fa18626381edd3d7a115c4a09f678bb79665034a541affcdba9fe65a1d3d107ee906200073284337f000000000000000000000000000000000000000000000000000000000000000062001e9f565b6040519384523393a360015f8051602062002ba38339815191525580f35b6200075b90620019e0565b6200076857835f620006e1565b8380fd5b6040513d84823e3d90fd5b5080fd5b6040516304c4857b60e51b8152600490fd5b9093508181813d8311620007ba575b620007a88183620019f5565b81010312620005df5751925f6200069a565b503d6200079c565b6040513d87823e3d90fd5b600b01546001600160a01b031662000664565b60405163174b639360e11b8152600490fd5b5034620002245780600319360112620002245760206040516127108152f35b503462000224576020366003190112620002245760206200060660043562001c55565b503462000224578060031936011262000224576020604051601e8152f35b5034620002245760203660031901126200022457620008e5604060209260043581526003845220620008848162001a18565b906001810154906002810154600382015460048301546005840154600685015460078601549160088701549360098801549560018060a01b039788600b81600a8d0154169b0154169a6040519e8f9e8f9e8f6101c090818152019062001ae9565b9d015260408d015260608c015260808b015260a08a015260c089015260e088015261010087015260ff8116151561012087015260ff8160081c16151561014087015260101c166101608501526101808401526101a08301520390f35b50346200022457620009533662001939565b906200095e62001cfd565b808352600360205260408320600681015442101562000b55576009015460ff166200020057811562000b4357805f52600360205260405f2091335f52600560205260405f20825f5260205260ff60405f2054165f1462000b3457612710620009c9600a5b8362001bbb565b0490620009d7828262001bcf565b9062000a068130337f000000000000000000000000000000000000000000000000000000000000000062001d2e565b6007850162000a1783825462001b41565b90556008850162000a2a84825462001b41565b90555f9460048101549262000a72600283019162000a5783549662000a50838962001b41565b9062001b9c565b95600385019662000a6a81895462001bcf565b975562001b41565b9055600b01546001600160a01b0316803b1562000b30576040516340c10f1960e01b815233600482015260248101849052905f908290604490829084905af1801562000b255762000b0f575b506040519485526020850152604084015260608301527f4751c5d55b3f49e18b20719a1a2338b9654cb6cd4d71150f79e96fdf565e227d60803393a360015f8051602062002ba38339815191525580f35b62000b1c919550620019e0565b5f935f62000abe565b6040513d5f823e3d90fd5b5f80fd5b612710620009c9601e620009c2565b604051631f2a200560e01b8152600490fd5b60405163e06077b560e01b8152600490fd5b5034620002245762000b793662001939565b908252600460205260408220805482101562000bd15762000b9b925062001977565b5060018060a01b03815416620002a4600183015492600362000bc06002830162001a18565b910154906040519485948562001b10565b8280fd5b503462000224576040366003190112620002245760209060ff906040906001600160a01b0362000c0462001960565b16815260058452818120602435825284522054166040519015158152f35b503462000224578060031936011262000224576001546040516001600160a01b039091168152602090f35b50346200022457806003193601126200022457546040516001600160a01b039091168152602090f35b503462000224578060031936011262000224576020604051600a8152f35b503462000224576020366003190112620002245762000cb262001960565b6001546001600160a01b0391908216330362000d05578183549116809282167f078c3b417dadf69374a59793b829c52001247130433427049317bde56607b1b78580a36001600160a01b03191617815580f35b604051635fc483c560e01b8152600490fd5b503462000224576060366003190112620002245760043562000d3862001950565b9060443562000d4662001cfd565b818452600360205260408420600681015442101562000b55576009015460ff166200020057801562000b435781845260036020526040842090831562000ed6576004820154916002810162000da381549462000a50858762001b41565b90600383019062000dc28562000dbb85855462001bcf565b9762001b41565b905555600a81015486906001600160a01b0316803b156200077757604051632770a7eb60e21b8152336004820152602481018590529082908290604490829084905af180156200076c5762000eba575b50505b821562000ea85760070162000e2c83825462001bcf565b905562000e5b82337f000000000000000000000000000000000000000000000000000000000000000062001e9f565b6040519315158452602084015260408301527fafe96f816e682ea8a830ce8f9b37a0f3d3a8288c93e2f9e5b7a4f88ffd1ca07260603393a360015f8051602062002ba38339815191525580f35b60405163bb55fd2760e01b8152600490fd5b62000ec590620019e0565b62000ed257855f62000e12565b8580fd5b6004820154916003810162000ef381549462000a50858762001b41565b90600283019062000f0b8562000dbb85855462001bcf565b905555600b81015486906001600160a01b0316803b156200077757604051632770a7eb60e21b8152336004820152602481018590529082908290604490829084905af180156200076c5762000f63575b505062000e15565b62000f6e90620019e0565b62000ed257855f62000f5b565b503462000224576020366003190112620002245760406020916004358152600483522054604051908152f35b503462000224578060031936011262000224576020600254604051908152f35b503462000224578060031936011262000224576040517f00000000000000000000000000000000000000000000000000000000000000006001600160a01b03168152602090f35b50346200022457620010203662001939565b906200102b62001cfd565b808352600360205260408320600681015442101562000b55576009015460ff166200020057811562000b4357805f52600360205260405f20335f52600560205260405f20825f5260205260ff60405f2054165f14620011e65761271062001095600a5b8562001bbb565b0490620010a3828562001bcf565b90620010d28530337f000000000000000000000000000000000000000000000000000000000000000062001d2e565b60078101620010e383825462001b41565b905560088101620010f684825462001b41565b90556004810154916200113560038301916200111a83549562000a50838862001b41565b9460028501956200112d81885462001bcf565b965562001b41565b9055600a01546001600160a01b0316803b1562000b30576040516340c10f1960e01b815233600482015260248101839052905f908290604490829084905af1801562000b2557620011d4575b5060405193600185526020850152604084015260608301527f4751c5d55b3f49e18b20719a1a2338b9654cb6cd4d71150f79e96fdf565e227d60803393a360015f8051602062002ba38339815191525580f35b620011df90620019e0565b5f62001181565b61271062001095601e6200108e565b503462000b3057608036600319011262000b305760043567ffffffffffffffff811162000b30576200122c90369060040162001908565b6200123662001cfd565b6107084201804211620018d7576044351115620018c557620f424060643510620018b35760025491620012698362001b4f565b6002556200129c60643530337f000000000000000000000000000000000000000000000000000000000000000062001d2e565b620012a78362001dbb565b620012ea602960405180936850445820594553202360b81b6020830152620012d9815180926020868601910162001ac6565b8101036009810184520182620019f5565b620012f58462001dbb565b906200133460246040518094637059455360e01b602083015262001323815180926020868601910162001ac6565b8101036004810185520183620019f5565b604051610ca0928382019082821067ffffffffffffffff831117620005cb5782916200136b9162001f039587878639309262001b5e565b03905ff091821562000b2557620013828662001dbb565b91620013c56028604051809567504458204e4f202360c01b6020830152620013b4815180926020868601910162001ac6565b8101036008810186520184620019f5565b620013d08762001dbb565b926200140e6023604051809662704e4f60e81b6020830152620013fd815180926020868601910162001ac6565b8101036003810187520185620019f5565b604051938385019185831067ffffffffffffffff841117620005cb5785946200143b948639309262001b5e565b03905ff0801562000b25576001600160a01b0382163b1562000b30576040516340c10f1960e01b80825230600483015260643560011c6024830152905f81604481836001600160a01b0389165af1801562000b25576200189d575b5086906001600160a01b0383163b15620007775760405190815230600482015260643560011c60248201528181604481836001600160a01b0388165af180156200076c5762001885575b50620014f4905060643560011c8062001bbb565b9160443561070719810111620018715760405192836101c081011067ffffffffffffffff6101c086011117620005cb576101c084016040526200153936878762001bfa565b8452602435602085015260643560011c604085015260643560011c6060850152608084015260443560a0840152610707196044350160c084015260643560e08401528661010084015286610120840152866101408401523361016084015260018060a01b031661018083015260018060a01b03166101a0820152838552600360205260408520815180519067ffffffffffffffff82116200185d57620015e08354620019a5565b601f811162001817575b5060209787959493929189916001601f8511146200178357927f069da8c9710c1600001ae111f110050f586b7fcd73d420b5eb03747f67e86d0d96949281926200174f97959262001777575b50508160011b915f199060031b1c19161781555b88820151600182015560408201516002820155606082015160038201556080820151600482015560a0820151600582015560c0820151600682015560e08201516007820155610100820151600882015560098101610120830151151560ff80198354169116178155620016d76101408401511515829061ff00825491151560081b169061ff001916179055565b610160830151815462010000600160b01b03191660109190911b62010000600160b01b0316179055610180820151600a820180546001600160a01b03199081166001600160a01b03938416179091556101a090930151600b929092018054909316911617905560408051818152959086019162001c35565b92604435868201528033940390a360015f8051602062002ba383398151915255604051908152f35b015190505f8062001636565b91908483528a8320925b601f1985168110620017fc5750927f069da8c9710c1600001ae111f110050f586b7fcd73d420b5eb03747f67e86d0d9694926001926200174f979583601f19811610620017e3575b505050811b0181556200164a565b01515f1960f88460031b161c191690555f8080620017d5565b8183015184558a9850600190930192918b01918b016200178d565b83895260208920601f840160051c81016020851062001855575b601f830160051c8201811062001849575050620015ea565b8a815560010162001831565b508062001831565b634e487b7160e01b88526041600452602488fd5b634e487b7160e01b87526011600452602487fd5b6200189090620019e0565b62000ed257855f620014e0565b620018aa919750620019e0565b5f955f62001496565b604051632ca2f52b60e11b8152600490fd5b6040516325a8637d60e21b8152600490fd5b634e487b7160e01b5f52601160045260245ffd5b3462000b30575f36600319011262000b305780620f424060209252f35b9181601f8401121562000b305782359167ffffffffffffffff831162000b30576020838186019501011162000b3057565b604090600319011262000b30576004359060243590565b60243590811515820362000b3057565b600435906001600160a01b038216820362000b3057565b805482101562001991575f5260205f209060021b01905f90565b634e487b7160e01b5f52603260045260245ffd5b90600182811c92168015620019d5575b6020831014620019c157565b634e487b7160e01b5f52602260045260245ffd5b91607f1691620019b5565b67ffffffffffffffff8111620005cb57604052565b90601f8019910116810190811067ffffffffffffffff821117620005cb57604052565b9060405191825f825462001a2c81620019a5565b908184526020946001916001811690815f1462001aa2575060011462001a60575b50505062001a5e92500383620019f5565b565b5f90815285812095935091905b81831062001a8957505062001a5e93508201015f808062001a4d565b8554888401850152948501948794509183019162001a6d565b9250505062001a5e94925060ff191682840152151560051b8201015f808062001a4d565b5f5b83811062001ad85750505f910152565b818101518382015260200162001ac8565b9060209162001b048151809281855285808601910162001ac6565b601f01601f1916010190565b94939260609262001b3c9260018060a01b03168752602087015260806040870152608086019062001ae9565b930152565b91908201809211620018d757565b5f198114620018d75760010190565b9162001b8c9062001b7d60409396959660608652606086019062001ae9565b90848203602086015262001ae9565b6001600160a01b03909416910152565b811562001ba7570490565b634e487b7160e01b5f52601260045260245ffd5b81810292918115918404141715620018d757565b91908203918211620018d757565b67ffffffffffffffff8111620005cb57601f01601f191660200190565b92919262001c088262001bdd565b9162001c186040519384620019f5565b82948184528183011162000b30578281602093845f960137010152565b908060209392818452848401375f828201840152601f01601f1916010190565b5f52600360205260405f20600360028201549101549062001c77828262001b41565b1562001ca657620f424090818302918383041483151715620018d75762001ca39262000a509162001b41565b90565b50506207a12090565b5f52600360205260405f20600360028201549101549062001cd1828262001b41565b1562001ca657620f424090818102918183041481151715620018d75762001ca39262000a509162001b41565b5f8051602062002ba3833981519152600281541462001d1c5760029055565b604051633ee5aeb560e01b8152600490fd5b6040516323b872dd60e01b5f9081526001600160a01b03938416600452938316602452604494909452909160209060648180855af160015f511481161562001d9a575b836040525f6060521562001d8457505050565b635274afe760e01b835216600482015260249150fd5b600181151662001db257813b15153d15161662001d71565b833d5f823e3d90fd5b801562001e6f575f81805b62001e58575062001dd78162001bdd565b9062001de76040519283620019f5565b808252601f1962001df88262001bdd565b013660208401375b8092801562001e51575f198201918211620018d7578193600a926030908484068201809211620018d75785511115620019915760f81b6001600160f81b0319165f1a908401601f0153049162001e00565b5050905090565b9062001e66600a9162001b4f565b91048062001dc6565b506040516040810181811067ffffffffffffffff821117620005cb5760405260018152600360fc1b602082015290565b60405163a9059cbb60e01b5f9081526001600160a01b039384166004526024949094529260209060448180855af160015f511481161562001eea575b836040521562001d8457505050565b600181151662001db257813b15153d15161662001edb56fe60a060405234620003375762000ca0803803806200001d816200033b565b9283398101606082820312620003375781516001600160401b03908181116200033757826200004e91850162000361565b906020928385015182811162000337576040916200006e91870162000361565b940151936001600160a01b03851685036200033757825182811162000242576003918254916001958684811c941680156200032c575b8885101462000318578190601f94858111620002c5575b50889085831160011462000262575f9262000256575b50505f1982861b1c191690861b1783555b8051938411620002425760049586548681811c9116801562000237575b828210146200022457838111620001dc575b50809285116001146200017257509383949184925f9562000166575b50501b925f19911b1c19161790555b6080526040516108ce9081620003d2823960805181818161014a0152818161035c01526103ea0152f35b015193505f806200012d565b92919084601f198116885f52855f20955f905b89838310620001c15750505010620001a7575b50505050811b0190556200013c565b01519060f8845f19921b161c191690555f80808062000198565b85870151895590970196948501948893509081019062000185565b875f52815f208480880160051c8201928489106200021a575b0160051c019087905b8281106200020e57505062000111565b5f8155018790620001fe565b92508192620001f5565b602288634e487b7160e01b5f525260245ffd5b90607f1690620000ff565b634e487b7160e01b5f52604160045260245ffd5b015190505f80620000d1565b90889350601f19831691875f528a5f20925f5b8c828210620002ae575050841162000296575b505050811b018355620000e2565b01515f1983881b60f8161c191690555f808062000288565b8385015186558c9790950194938401930162000275565b909150855f52885f208580850160051c8201928b86106200030e575b918a91869594930160051c01915b828110620002ff575050620000bb565b5f81558594508a9101620002ef565b92508192620002e1565b634e487b7160e01b5f52602260045260245ffd5b93607f1693620000a4565b5f80fd5b6040519190601f01601f191682016001600160401b038111838210176200024257604052565b919080601f84011215620003375782516001600160401b038111620002425760209062000397601f8201601f191683016200033b565b9281845282828701011162000337575f5b818110620003bd5750825f9394955001015290565b8581018301518482018401528201620003a856fe6080604090808252600480361015610015575f80fd5b5f3560e01c91826306fdde031461067357508163095ea7b3146105cb57816318160ddd146105ad57816323b872dd146104bb578163313ce567146104a057816340c10f19146103c157816370a082311461038b57816380f556051461034857816395d89b41146102295781639dc29fac1461012057508063a9059cbb146100f05763dd62ed3e146100a4575f80fd5b346100ec57806003193601126100ec576020906100bf610792565b6100c76107a8565b9060018060a01b038091165f5260018452825f2091165f528252805f20549051908152f35b5f80fd5b50346100ec57806003193601126100ec5760209061011961010f610792565b60243590336107be565b5160018152f35b82346100ec57806003193601126100ec57610139610792565b602435929091906001600160a01b037f00000000000000000000000000000000000000000000000000000000000000008116330361021a57831692831561020457835f525f602052825f2054918583106101d0575f857fddf252ad1be2c89b69c2b068fc378daa952ba7f163c4a11628f55a4df523b3ef6020898881898688528785520381872055816002540360025551908152a3005b835163391434e360e21b81526001600160a01b03909216908201908152602081018390526040810186905281906060010390fd5b505f6024925191634b637e8f60e11b8352820152fd5b509051639e0125a960e01b8152fd5b82346100ec575f3660031901126100ec578051905f835460018160011c906001831692831561033e575b602093848410811461032b5783885290811561030f57506001146102bb575b505050829003601f01601f191682019267ffffffffffffffff8411838510176102a857508291826102a492528261074b565b0390f35b604190634e487b7160e01b5f525260245ffd5b5f878152929350837f8a35acfbc15ff81a39ae7d344fd709f28e8600b4aa8c65c6b64bfe7fe36bd19b5b8385106102fb5750505050830101848080610272565b8054888601830152930192849082016102e5565b60ff1916878501525050151560051b8401019050848080610272565b602289634e487b7160e01b5f525260245ffd5b91607f1691610253565b82346100ec575f3660031901126100ec57517f00000000000000000000000000000000000000000000000000000000000000006001600160a01b03168152602090f35b82346100ec5760203660031901126100ec576020906001600160a01b036103b0610792565b165f525f8252805f20549051908152f35b82346100ec57806003193601126100ec576103da610792565b60243591906001600160a01b03907f000000000000000000000000000000000000000000000000000000000000000082163303610490571692831561047b576002549083820180921161046857505f927fddf252ad1be2c89b69c2b068fc378daa952ba7f163c4a11628f55a4df523b3ef9260209260025585855284835280852082815401905551908152a3005b601190634e487b7160e01b5f525260245ffd5b5f602492519163ec442f0560e01b8352820152fd5b8251639e0125a960e01b81528590fd5b82346100ec575f3660031901126100ec576020905160068152f35b9050346100ec5760603660031901126100ec576104d6610792565b6104de6107a8565b906044359260018060a01b038216805f526001602052855f20335f52602052855f2054915f198310610519575b6020876101198888886107be565b85831061058157811561056b57331561055557505f9081526001602090815286822033835281529086902091859003909155829061011961050b565b6024905f885191634a1406b160e11b8352820152fd5b6024905f88519163e602df0560e01b8352820152fd5b8651637dc7a0d960e11b8152339181019182526020820193909352604081018690528291506060010390fd5b82346100ec575f3660031901126100ec576020906002549051908152f35b82346100ec57806003193601126100ec576105e4610792565b60243590331561065d576001600160a01b03169081156106475760209350335f5260018452825f20825f52845280835f205582519081527f8c5be1e5ebec7d5bd14f71427d1e84f3dd0314c0f7b2291e5b200ac8c7c3b925843392a35160018152f35b8251634a1406b160e11b81525f81860152602490fd5b825163e602df0560e01b81525f81860152602490fd5b83346100ec575f3660031901126100ec575f60035460018160011c9060018316928315610741575b602093848410811461032b5783885290811561030f57506001146106eb57505050829003601f01601f191682019267ffffffffffffffff8411838510176102a857508291826102a492528261074b565b60035f908152929350837fc2575a0e9e593c00f959f8c92f12db2869c3395a3b0502d05e2516446f71f85b5b83851061072d5750505050830101848080610272565b805488860183015293019284908201610717565b91607f169161069b565b602080825282518183018190529093925f5b82811061077e57505060409293505f838284010152601f8019910116010190565b81810186015184820160400152850161075d565b600435906001600160a01b03821682036100ec57565b602435906001600160a01b03821682036100ec57565b916001600160a01b03808416928315610880571692831561086857825f525f60205260405f2054908282106108365750817fddf252ad1be2c89b69c2b068fc378daa952ba7f163c4a11628f55a4df523b3ef92602092855f525f84520360405f2055845f5260405f20818154019055604051908152a3565b60405163391434e360e21b81526001600160a01b03919091166004820152602481019190915260448101829052606490fd5b60405163ec442f0560e01b81525f6004820152602490fd5b604051634b637e8f60e11b81525f6004820152602490fdfea264697066735822122075d62fb79b05c538cf5f5ac89defb4a5d3071a4c8d4b71986ebe6a9f4ca2505664736f6c634300081800339b779b17422d0df92223018b32b4d1fa46e071723d6817e2486d003becc55f00a26469706673582212204a42f94b082557eca21e955cfe31aa2204943676519a694ca231d16ceb73b82e64736f6c63430008180033","linkReferences":{}},"methodIdentifiers":{"FEE_DENOMINATOR()":"d73792a9","FEE_NORMAL()":"be57d07a","FEE_WITH_EVIDENCE()":"7d68f557","LOCKDOWN_BUFFER()":"fc03181c","MIN_LIQUIDITY()":"21b77d63","buyNo(uint256,uint256)":"a9f6b058","buyYes(uint256,uint256)":"399af502","createMarket(string,bytes32,uint256,uint256)":"2ec26b9d","getEvidence(uint256,uint256)":"f1b8a98c","getEvidenceCount(uint256)":"423aee31","getMarketTokens(uint256)":"f0f3684e","getPriceNo(uint256)":"de62967d","getPriceYes(uint256)":"d46a7721","hasEvidence(address,uint256)":"918268a8","marketEvidence(uint256,uint256)":"9aa8695f","markets(uint256)":"b1283e77","nextMarketId()":"406ef2ef","oracle()":"7dc0d1d0","owner()":"8da5cb5b","redeem(uint256)":"db006a75","sell(uint256,bool,uint256)":"49c0cc14","setOracle(address)":"7adbf973","settle(uint256,bool)":"fe417a47","submitEvidence(uint256,bytes32,string)":"ea75dde4","usdc()":"3e413bee"},"id":14}